:020000040800F2
:10000000C8050020D5000008F9210008451E000899
:1000100000000000000000000000000000000000E0
:100020000000000000000000000000002926000879
:1000300000000000000000007D2300089127000858
:10004000E7000008E7000008E7000008E7000008F4
:10005000E7000008E7000008E7000008E7000008E4
:10006000E7000008E7000008E7000008E7000008D4
:10007000E7000008E7000008E7000008E7000008C4
:10008000E7000008E700000800000000E7000008A3
:10009000E7000008E7000008E7000008E7000008A4
:1000A000E7000008E7000008E7000008E700000894
:1000B000E700000800000000E7000008044885464B
:1000C00000F06AFA0048004745320008C046C046C2
:1000D000C80500200448804704480047FEE7FEE7C3
:1000E000FEE7FEE7FEE7FEE70B280008BD0000087C
:1000F00030B50B46014600202022012409E00D46C0
:10010000D5409D4205D31D469540491B2546954047
:1001100040191546521E002DF1DC30BDF0B51FB45C
:100120000646002082B005464024019100901BE065
:10013000019922460F46304600F020F8049A059BAC
:10014000801A994110D310461946224600F04BF808
:10015000361A8F410197224601200021009F00F0AE
:1001600042F838184D4100902046641E0028DFDC1C
:10017000019B00982946324607B0F0BD10B5202AF1
:1001800004DB0846203AD040002110BD0B46D34086
:10019000D0402024A21A91400843194610BD0346BE
:1001A0000B439B0703D009E008C9121F08C0042AAB
:1001B000FAD203E00B780370401C491C521EF9D29E
:1001C0007047D2B201E00270401C491EFBD270475A
:1001D0000022F6E710B513460A4604461946FFF713
:1001E000F0FF204610BD10B5202A04DB0146203A5E
:1001F0009140002010BD914020239C1A0346E3400B
:100200001943904010BD0000F0B50746084658401D
:1002100087B0C00F049048000E46590040084908B6
:10022000BC1A884105D2384631461E4617460B4651
:1002300002465800400810434DD0300D0390400551
:100240005900400D490D0590401A0290402873DA7C
:1002500018030121000B090508430190049800923E
:10026000002806D01146019A494200209041009191
:100270000190029840210A1A01990098FFF7B3FFF4
:1002800005460C466B4607CB00F098F9C019714142
:10029000039A0E0D0023D71756401A467A4016438C
:1002A00044D0049A002A2DD0029A012A039A15DC20
:1002B0001205C01A914101263605001C7141D20F6A
:1002C000059ED2070093019202962A46234600F02B
:1002D00095F907B0F0BD38463146FAE71605234ACE
:1002E0000F46B218C01AB74101210905001C4F4141
:1002F00000187F41114618187941E20F10436D191B
:10030000644113E0E2076D0815436408C207144313
:10031000039A01261205C01A91413605001C71414D
:10032000CE07400830434908C01851412A462346A9
:1003300000F057F9CDE7FFE7049801224000C1170C
:10034000121A00238B4104983146C417381AA14170
:10035000EEE730B40124E407634030BC54E730B426
:100360000124E407614030BC4EE700000000E0FFDC
:10037000F0B51FB488B00B9909980024484009993A
:10038000C00F490049080991C0070B990090490026
:1003900049080B9109990898A64608431CD00B9967
:1003A0000A98084318D0099801244000420D4800DB
:1003B000410D099824050003000B204309900B9878
:1003C0000003000B20430B9050181C4940180022DA
:1003D00001901446104605E0002001460DB0F0BD26
:1003E000032801DA034600E003239C46C11A0AAE43
:1003F0000AE05F0008ADED5B4F00F75B7D4300272F
:10040000AA187C41491C5B1E6145F2DD410004AB2A
:100410005A522104120C0A43240C401C0828DFDB2A
:10042000019802900099704601910090059B049AF2
:100430000799069800F0E2F8D0E700000DFCFFFFF6
:10044000F0B50C465C4085B0E40FE40703944C0023
:100450000026640859009446490802460296224341
:1004600021D062460A431ED06200570D4A000E0397
:100470002303550D012402462C492405781B1B0B30
:10048000360B401823432643614600901C46501A01
:10049000B44103D30098401C009002E092180098E9
:1004A0005B41002803DA0020014605B0F0BD0020C2
:1004B000012109050746864611E064461D46141BC6
:1004C000B54106D36546521BB341744607430C43FE
:1004D000A646CD0740084908284392185B410546C7
:1004E0000D43EAD11046184313D0604619465040D8
:1004F0007140084306D06046101AB34106D201226B
:10050000002306E000220123DB0702E00122D243A0
:100510005310009874460105381C6141029C039DEC
:100520000019694100F05DF8BFE70000FD0300001D
:100530004A0009030123090B1B0519430A4B10B597
:10054000520D9A4202DA0020014610BD064B3433A8
:100550009A4203DC9A1AFFF711FE10BD034BD21822
:10056000FFF741FE10BD0000FF030000CDFBFFFFC1
:1005700010B5002904DB0124E40740428C412146E8
:10058000002B04DB1C460123DB075242A3419942A6
:1005900000D1904210BD0000064C0125064E05E03A
:1005A000E36807CC2B430C3C98471034B442F7D394
:1005B000FFF788FDB03A0008D03A000810B5202AAD
:1005C00006DBCB170846203A1041C1170B4306E063
:1005D0000B461341D0402024A21A914008431946EB
:1005E00010BD10B5002B08DA0024401C61419218A0
:1005F0005B411A4301D14008400010BDF0B51FB463
:1006000082B005460C0003D0084602F013F902E060
:1006100002F010F920300246009021462846FFF7EC
:10062000E2FD049B059A04460F4618431143084314
:1006300014D0184610431BD0009840210A1A1846BF
:100640000599FFF79BFD05460E46009A059904980B
:10065000FFF7C9FD084305D0012004E020463946D4
:1006600007B0F0BD0020C11705430E432C433743AC
:1006700000990E986305401A7905E40A00220C439C
:10068000FD0A0A3002D500200146E9E701051019EC
:1006900069410C9C0D9D00196941FFF7A2FFDFE73E
:1006A000034A525C012303411A43014B5A547047D9
:1006B0002500002001B507490A780978491C054B37
:1006C000197051005118044A881803226946FFF72F
:1006D00066FD08BD240000207001002010B5CB008D
:1006E000014C1B191A5410BD8801002070B5024638
:1006F0000B46002139E001240125480008181E4E50
:10070000801980782040002806D0480008188019F9
:1007100040784407640F06E048000818164E801918
:10072000407845076D0F48000818134E305C0007ED
:10073000400F904218DC48000818305C0007400F5A
:100740000019904210DD48000818305C4006400F48
:10075000984209DC48000818305C4006400F4019F8
:10076000984201DD012070BD491C04480078814297
:10077000C1DB0020F7E7000070010020240000200A
:1007800070B5A6B013A800F065F8482101A8FFF7DE
:100790001FFD052168460171002141718171012110
:1007A000C171017200214172002014E00146C3179B
:1007B0005B0F5B18DB10DB001E4D5B190246C51793
:1007C0006D0FAD18ED10ED00451B5D5D0346083360
:1007D00001AEF554401C4028E8DB01AC0020C043CA
:1007E00018232246CA21009013A800F013FB012011
:1007F00000F012F91834641E812020700020C043DC
:1008000019232246CA21009013A800F003FB0120FF
:1008100000F002F91934641E812020700020C043CA
:1008200019232246CA21009013A800F0F3FA26B03B
:1008300070BD00006000002072B600BFFEE700003F
:1008400008B503480178009169460978084608BD53
:100850002D00002010B504462A2212492046FFF739
:100860009EFC1048408D60850E48C06AE0620D48CD
:10087000006B20630D220B49343120463430FFF7E2
:100880008EFC0848403041784120015505484030F1
:100890008178422001550348406C60640148806CB7
:1008A000A06410BD0401002070B50025FF210131B6
:1008B0000920C00600F0BEF9044633480078A04283
:1008C00004D031480078002800D101252E4804705A
:1008D000012149020920C00600F0ACF904462A486B
:1008E0004078A04204D028484078002800D1042550
:1008F00025484470012189020920C00600F09AF9B8
:10090000044621488078A04204D01F4880780028FF
:1009100000D108251C4884700121C9020920C006A5
:1009200000F088F904461848C078A04204D0164860
:10093000C078002800D102251348C47001210903A2
:100940000920C00600F076F904460F480079A0425D
:1009500004D00D480079002800D110250A48047100
:1009600002210920C00600F065F9044606484079D6
:10097000A04204D004484079002800D12025024834
:100980004471284670BD00001200002008B568467A
:1009900000780E2188430146684601700078702176
:1009A0008843014668460170012181701048114951
:1009B0000978405C694648700E4801780078401C10
:1009C0000C4A1070082905D1694608784008400093
:1009D000087005E06946087840084000401C08702F
:1009E000694609880846694689780904084308BDAC
:1009F000180000202000002008B5032205496846A1
:100A0000FFF7CDFB694609880846694689780904DD
:100A1000084308BD2100002070B5044600F01AF913
:100A200006462546681C002802D0054800782D1887
:100A300000BF00F00FF9801BA842FAD370BD000080
:100A400038000020F8B503460022E1E00D68D540EB
:100A50002F46012696400C683440002C7ED04D680D
:100A6000012D08D04D68022D05D04D68112D02D002
:100A70004D68122D18D1986856000325B5400646DA
:100A8000AE4330465600CD68B5402843986058685C
:100A9000012595400646AE43304610264D68354048
:100AA0002D09954028435860D86856000325B54065
:100AB0000646AE43304656008D68B5402843D860A0
:100AC0004D68022D02D04D68122D15D1D508AD000C
:100AD0001E46203670595507EE0E0F25B5400646C6
:100AE000AE4330465607F60E0D69B5402843D5088B
:100AF000AE001D462035A851186856000325B540A4
:100B00000646AE4330460D79AD07AD0F5600B540F1
:100B100028431860012636074D683540B54275D127
:100B200000BF3E4DAD69012635433C4EB5613546AB
:100B3000AD69ED07ED0F009500BF00BF384D960879
:100B4000B600A85995072E0F0F25B5400646AE43AF
:100B500030460925ED06AB4203D100E056E0002502
:100B60000FE0304DAB4201D101250AE02E4DAB42E2
:100B700001D1022505E02D4DAB4201D1032500E056
:100B800005259607360FB5402843254D9608B60033
:100B9000A851274D28680546A54328460126360456
:100BA0004D683540B54202D1054625432846204DC3
:100BB000286068680546A5432846012676044D68E6
:100BC0003540B54202D1054625432846184D686098
:100BD000A8680546A5432846012636054D683540D8
:100BE000B54202D1054625432846114DA860E86864
:100BF0000546A5432846012676054D683540B54291
:100C000002D1054625432846094DE860521C00BF25
:100C10000D68D540002D00D018E7F8BD0010024047
:100C2000080001400004004800080048000C00488B
:100C300000040140024613690B40002B01D0012043
:100C400000E000207047002A01D0816100E081624D
:100C50007047000001480068704700003000002025
:100C600002464120805C20282FD100BF4020805CBC
:100C7000012801D10220704701234020835400BF86
:100C80002423412083541068006840084000136802
:100C900018601068006801231B03984313681860EC
:100CA0001068006808431368186010680068012322
:100CB00018431368186020234120835400BF002389
:100CC0004020835400BF0020D5E70220D3E710B5B1
:100CD00002460B464120805C20282ED100BF4020D8
:100CE000805C012801D1022010BD012440208454E1
:100CF00000BF24244120845410680068400840004C
:100D000014682060106801680F2424020846A0437C
:100D10000146180201431068016010680068012450
:100D200020431468206020244120845400BF002404
:100D30004020845400BF0020D6E70220D4E7000002
:100D400010B50446002C01D1012010BD4120005DEA
:100D5000002805D1002140200155204600F010F95F
:100D60002421412001552068006840084000216886
:100D700008600F21090660688843216808612068BF
:100D800080680121C903884321688860E0680128E0
:100D900006D10121C903A06808432168886005E0E5
:100DA00021218902A068084321688860E068022840
:100DB00002D18002216848602068406814490843D5
:100DC000216848602068C0680121C9038843216800
:100DD000C860616920690843A16909020843216864
:100DE000C860216AE06908432168086020680068DB
:100DF000012108432168086000206064202141200F
:100E000001550020206300214220015500209CE76D
:100E100000800002FFB581B0044616461F464120FF
:100E2000005D202877D100BF4020005D012802D15D
:100E3000022005B0F0BD01214020015500BFFFF7A1
:100E400009FF054619230122D1032046009501F030
:100E500081F8002801D00120EBE721214120015534
:100E6000102142200155002060646662678560633E
:100E7000608DFF280BD9FF2020853F480090208DF2
:100E8000C2B20B052046029901F048F80BE0608DD4
:100E9000208539480090208DC2B201235B06204690
:100EA000029901F03BF843E02A4620460A9901F0F6
:100EB000AAF8002801D00120BBE7606A0078216809
:100EC0008862606A401C6062608D401E6085208D73
:100ED000401E2085608D00282AD0208D002827D133
:100EE00000950022802120460A9B01F033F800285B
:100EF00001D001209DE7608DFF280DD9FF202085BE
:100F000000200090208DC2B201231B0620460299CA
:100F100001F004F80CE02CE0608D208500200090AA
:100F2000208DC2B201235B062046029900F0F6FF35
:100F3000608D0028B8D12A4620460A9901F036F87B
:100F4000002801D0012074E720202168C8612068B2
:100F500040680A4908402168486020214120015525
:100F600000214220015500BF4020015500BF002054
:100F70005FE702205DE700000020008000E800FE3F
:100F800010B586B00446142101A8FFF721F91A49CB
:100F9000206888422DD100BF18484069012189048A
:100FA0000843164948610846406901218904084000
:100FB000009000BF00BFC0200190122002900120CD
:100FC0000390032004900120059001A90C48FFF72D
:100FD00039FD00BF0948C069012149050843074997
:100FE000C8610846C069012149050840009000BF5A
:100FF00000BF06B010BD00000054004000100240C9
:101000000004004803480068034909784018014972
:1010100008607047300000203800002010B50648F6
:1010200000681021084304490860002000F006F819
:1010300000F02EF8002010BD0020024070B50446DC
:10104000104801787D20C000FFF752F8064631466F
:101050000D480068FFF74CF8054600F0D7FE002861
:1010600001D0012070BD042C07D200222146501E61
:1010700000F02EF80548046001E00120F2E70020AE
:10108000F0E70000380000203C0000203400002081
:1010900008B500BF0D488069012108430B498861EC
:1010A00008468069C007C00F009000BF00BF00BFA6
:1010B0000846C069090408430449C8610846C06974
:1010C00009040840009000BF00BF08BD00100240A6
:1010D00070B504460D4616462946204601F0E8FB49
:1010E00070BD0000F8B50446002600250121090462
:1010F0002068084088427AD100275248C069090315
:10110000084000280DD100BF4E48C06908434D4932
:10111000C8610846C06909040840009000BF00BFCC
:10112000012749480068FF2101310840002816D1F5
:1011300045480068084344490860FFF78BFD0646B0
:1011400006E0FFF787FD801B642801D90320F8BD66
:101150003D480068FF21013108400028F1D039489E
:10116000006A0321090208400546002D2DD0606861
:101170000840A84229D03348006A884305463148D0
:10118000006A0121090408432E4908620846006AE2
:101190000121090488432B49086208460562E807D3
:1011A000C00F002811D0FFF755FD064607E0FFF7F6
:1011B00051FD801B2549884201D90320C7E72148FA
:1011C000006A022108400028F1D01E48006A03216D
:1011D00009028843616808431A490862012F05D152
:1011E0000846C069090488431649C86100BF2078D1
:1011F000C007C00F002807D01248006B800880008D
:10120000A16808430F49086320212068084020286E
:1012100007D10C48006B10218843E1680843094955
:1012200008630121890220680840884207D10548E7
:10123000006B40218843216908430249086300206C
:1012400085E7000000100240007000408813000095
:1012500070B504460D46002C01D1012070BD5248E6
:101260000068C007C00FA8420ED24F48006840086F
:10127000400028434C49086008460068C007C00F7A
:10128000A84201D00120E9E7022120680840022895
:1012900014D1042120680840042807D1434840683D
:1012A0000721090288434018404948603F48406888
:1012B000F0218843A16808433C4948602078C00772
:1012C000C00F00283BD06068012808D1374800686B
:1012D000012149040840002815D10120BEE76068BB
:1012E000022808D131480068012149060840002839
:1012F00009D10120B2E72D480068022108400028EA
:1013000001D10120AAE7294840688008800061686F
:10131000084326494860FFF79DFC064607E0FFF7B3
:1013200099FC801B2249884201D9032096E71F4877
:1013300040680C210840616889008842EFD11A4852
:101340000068C007C00FA8420ED9174800684008BF
:10135000400028431449086008460068C007C00FD1
:10136000A84201D0012079E7042120680840042820
:1013700008D10E484068072109028843E168084304
:101380000A49486000F01AF808494968F0221140FB
:101390000909084A515CC840074908600020FFF766
:1013A0004DFE00205AE700000020024000100240DD
:1013B00088130000983A00083C000020F0B589B07E
:1013C00027A001460EC9C06805AC0EC4089028A02D
:1013D00001460EC9C06801AC0EC40490002400256B
:1013E0000027002600200090254844680C2020405B
:1013F00000282DD0042802D0082828D102E0214856
:10140000009028E00F2080042040800C05A90E5C8D
:101410001B48C06A0007000F01A90D5C01200004F1
:1014200020400121090488420AD12A460023154898
:101430001946FEF773FE314601F013FA074604E041
:101440001148314601F00DFA0746009703E000BF4E
:101450000C48009000BF00BF009809B0F0BD00002C
:1014600002030405060708090A0B0C0D0E0F1010E5
:101470000102030405060708090A0B0C0D0E0F10E4
:101480000010024000127A0000093D00FEB504463B
:10149000002C01D10120FEBD2078C007C00F00281C
:1014A00071D0FC4840680C21084004280BD0F94852
:1014B00040680840082812D1F64840680121090414
:1014C000084088420BD1F3480068012149040840D4
:1014D00000286BD06068002868D10120DBE700BFDE
:1014E0006068012807D1EB4800680121090408431E
:1014F000E849086031E0606800280ED1E5480068DE
:10150000012109048843E349086008460068012175
:1015100089048843DF4908601FE0606805280ED110
:10152000DC480068012189040843DA49086008465C
:101530000068012109040843D64908600DE0D54838
:101540000068012109048843D24908600846006800
:10155000012189048843CF49086000BF60680028E2
:1015600012D0FFF777FB054606E0FFF773FB401B41
:10157000642801D903208EE7C64800680121490488
:1015800008400028F1D011E0FFF764FB054606E0B3
:10159000FFF760FB401B642801D903207BE7BD48AF
:1015A00000680121490408400028F1D10221206887
:1015B0000840022861D1B74840680C210840002843
:1015C0000BD0B4484068084008281BD1B148406897
:1015D000012109040840002814D1AE480068022106
:1015E0000840002804D0E068012801D0012052E71B
:1015F000A8480068F82188432169C9000843A54923
:1016000008603AE0E068002820D0A2480068012184
:101610000843A0490860FFF71DFB054606E0FFF7F9
:1016200019FB401B022801D9032034E799480068C0
:10163000022108400028F2D096480068F82188432B
:101640002169C90008439349086016E09148006881
:10165000400840008F490860FFF7FCFA054606E0A5
:10166000FFF7F8FA401B022801D9032013E7894845
:101670000068022108400028F2D1082120680840B3
:10168000082831D1E069002817D08248406A01213A
:10169000084380494862FFF7DDFA054606E0FFF798
:1016A000D9FA401B022801D90320F4E67948406AA0
:1016B000022108400028F2D016E07648406A40082F
:1016C000400074494862FFF7C5FA054606E0FFF797
:1016D000C1FA401B022801D90320DCE66D48406AAC
:1016E000022108400028F2D1042120680840042883
:1016F00073D1002001906748C0698906084000281E
:101700000ED100BF6348C06908436249C8610846FA
:10171000C06909040840009000BF00BF012001908B
:101720005D480068FF2101310840002816D15A4861
:101730000068084358490860FFF78CFA054606E040
:10174000FFF788FA401B642801D90320A3E652481A
:101750000068FF21013108400028F1D000BFA068D7
:10176000012806D14B48006A012108434949086213
:101770002BE0A06800280CD14648006A40084000D1
:10178000444908620846006A0421884341490862C6
:101790001BE0A06805280CD13E48006A04210843DC
:1017A0003C4908620846006A012108433949086239
:1017B0000BE03848006A4008400036490862084695
:1017C000006A042188433349086200BFA0680028EA
:1017D00013D0FFF73FFA054608E02BE0FFF73AFA8F
:1017E000401B2E49884201D9032054E62948006A4B
:1017F000022108400028F1D011E0FFF72BFA05463E
:1018000007E0FFF727FA401B2449884201D903204B
:1018100041E62048006A022108400028F1D10198E1
:10182000012806D11B48C0690121090788431949CD
:10183000C86100BF102120680840102860D160698D
:1018400001282DD11348406B0421084311494863F6
:101850000846406B012108430E494863FFF7FAF937
:10186000054606E0FFF7F6F9401B022801D90320E0
:1018700011E60848406B022108400028F2D00548D4
:10188000406BF8218843A169C900084301494863B6
:1018900036E0000000100240007000408813000095
:1018A0006069401D00280FD15A48406B04218843CD
:1018B000584948630846406BF8218843A169C9002C
:1018C0000843544948631BE05248406B04210843D5
:1018D000504948630846406B400840004863FFF7A2
:1018E000B9F9054606E0FFF7B5F9401B022801D912
:1018F0000320D0E54748406B022108400028F2D180
:10190000206A00284FD0434840680C21084008282E
:1019100064D0206A022847D13E48006801210906A8
:1019200088433C490860FFF795F9054606E0FFF754
:1019300091F9401B022801D90320ACE53548006825
:101940000121490608400028F1D100BF3148C06A92
:1019500000090001E16A08432E49C862616AA06A71
:1019600008432C4949683D22120491430843294900
:10197000486000BF08460068012109060843254960
:101980000860FFF767F9054606E0FFF763F9401BBB
:10199000022801D903207EE51E480068012149067E
:1019A00008400028F1D033E01A48006801210906F8
:1019B000884318490860FFF74DF9054606E0FFF730
:1019C00049F9401B022801D9032064E51148006849
:1019D0000121490608400028F1D119E0206A0128B8
:1019E00000D158E50B484668C76A01200004304022
:1019F000616A88420AD13907090FE06A814205D13C
:101A00000F2080043040A16A884201D0012042E5C5
:101A1000002040E50010024070B50446002C01D1C2
:101A2000012070BD606A002808D1FF21053160687F
:101A3000884200D105E00021E16102E0002121613E
:101A400061610021A1625D20005D002804D15C205D
:101A50000155204600F066F802215D2001552068FE
:101A60000068402188432168086007210902E06876
:101A7000884201D9002501E001252D030F2109022B
:101A8000E068884206D007210902E068884201D058
:101A90000021A162FF2105316068084021229202E5
:101AA000A168114008430222216911400843217DA9
:101AB000C907C90F08431202A1691140084338221F
:101AC000E169114008438022216A114008439201D4
:101AD000A16A1140084321680860A069000C042134
:101AE00008401022616A114008430822616B1140CE
:101AF00008430F221202E168114008430121090343
:101B000029400843216848602068C0690121C90252
:101B100088432168C8610020206601215D200155AD
:101B200000207EE710B586B00446142101A8FEF718
:101B30004FFB1949206888422BD100BF17488069A4
:101B4000891408431549886108468069891408404A
:101B5000009000BF00BF00BF104840694901084322
:101B60000E49486108464069012149040840009037
:101B700000BF00BFE02001900220029000200390EF
:101B8000032004900020059001A90920C006FEF75B
:101B900059FF06B010BD00000030014000100240A7
:101BA000FFB585B004461D460E9E01200190002021
:101BB000009000BF5C20005D012802D1022009B026
:101BC000F0BD01215C20015500BFFFF743F8074637
:101BD0005D20005D029060680390049502980128E2
:101BE0000DD0FF2105310398884205D1A068002857
:101BF00002D10298042802D002200090FBE006984F
:101C0000002804D00798002801D0002D02D101201F
:101C10000090F0E05D20005D042802D005215D20E9
:101C20000155002020660798206446200553442073
:101C300005530698A063E587A5870020E06420652A
:101C400007210902E068884207D92068406801211D
:101C5000090388432168486006E020684068012144
:101C60000903084321684860206800684021084053
:101C7000402804D0206800680843216808600721D4
:101C80000902E068884254D96068002802D00498AC
:101C9000012809D1A06B00882168C860A06B801C56
:101CA000A063E08F401EE0873BE02068806802214F
:101CB0000840022811D1E08F00280ED00198012899
:101CC0000BD1A06B00882168C860A06B801CA0634A
:101CD000E08F401EE0870020019020688068C007E8
:101CE000C00F002812D04620005B00280ED02068CC
:101CF000C068216C0880206C801C20644620005B3A
:101D0000401E81B24620015301200190FEF7A2FF40
:101D1000C01BB04205D3701C002802D003200090E5
:101D200069E0E08F0028C0D14620005B0028BCD1CC
:101D300055E06068002802D00498012809D1A06B02
:101D4000007821680873A06B401CA063E08F401EE0
:101D5000E0873DE02068806802210840022811D118
:101D6000E08F00280ED0019801280BD1A06B0078DD
:101D700021680873A06B401CA063E08F401EE087C1
:101D80000020019020688068C007C00F002812D092
:101D90004620005B00280ED02068007B216C087074
:101DA000206C401C20644620005B401E81B246200F
:101DB000015301200190FEF74DFFC01BB04202D33A
:101DC000701C002801D1002E02D10320009012E0E7
:101DD000E08F0028BED14620005B0028BAD13A46E9
:101DE0003146204600F008FB002803D00120009077
:101DF0002020206600BF01215D20015500BF002189
:101E00005C20015500BF0098D9E6000070B504467B
:101E10002546681E0949884201D901200CE0681E48
:101E2000074948610321081F00F042FD00200449D2
:101E3000886107200861002070BD0000FFFFFF00DF
:101E400000E000E000BFFEE701688969022211405E
:101E50004908002902D0002102689162016889695D
:101E6000C907C90F012251405140002904D101681E
:101E700089691143026891617047000070B504469A
:101E80000D46164620688069102108400009002888
:101E90003FD018E0681C002815D0FEF7DBFE801B41
:101EA000A84201D8002D0ED1606C20210843606447
:101EB0004120015500214220015500BF402001551D
:101EC00000BF012070BD20688069202108404009C2
:101ED0000028DFD010202168C86120202168C86157
:101EE0002046FFF7B1FF206840680B490840216891
:101EF0004860606C04210843606420214120015542
:101F000000214220015500BF4020015500BF0120A3
:101F1000D8E70020D6E7000000E800FEF0B504682E
:101F20006568059C640D0126B6023440084E2643C0
:101F30002C46B4438D05AD0D1604FF273F043E40EB
:101F400035431D43059E35432C4305686C60F0BD49
:101F5000FF63FF03F8B504460E4617461D4619E019
:101F6000681C002816D0FEF775FE0699401AA84294
:101F700001D8002D0ED1606C2021084360644120FF
:101F8000015500214220015500BF4020015500BFEE
:101F90000120F8BD206880693040B04201D10120A5
:101FA00000E00020B842DBD00020F2E770B5044624
:101FB0000D4616461EE0324629462046FFF75EFFD4
:101FC000002801D0012070BDFEF744FE801BA8420E
:101FD00001D8002D0ED1606C20210843606441209F
:101FE000015500214220015500BF4020015500BF8E
:101FF0000120E8E720688069202108404009002886
:10200000D9D00020DFE770B504460D46164621E022
:10201000324629462046FFF731FF002801D0012033
:1020200070BD681C002815D0FEF714FE801BA84266
:1020300001D8002D0ED1606C20210843606441203E
:10204000015500214220015500BF4020015500BF2D
:102050000120E5E720688069022108404008002847
:10206000D6D00020DCE710B5FEF7D8FF00F094FBD7
:1020700000F006F800F068F800F094F810BD0000D9
:1020800000B587B0142102A8FEF7A2F800BF2A48C5
:1020900040690121C904084327494861084640694D
:1020A0000121C9040840019000BF00BF00BF2248C1
:1020B0004069891008432049486108464069012168
:1020C00049040840019000BF00BF00BF1A484069A2
:1020D00049000843184948610846406901218904BC
:1020E0000840019000BF00BF002206211348FEF700
:1020F000AAFD062002900120039000200490059084
:1021000002A90E48FEF79EFC012002900C480390A5
:102110000020049002A90920C006FEF793FC09489C
:10212000029000200390049002A90920C006FEF747
:1021300089FC07B000BD0000001002400008004804
:1021400000001210021F000010B513481349086068
:10215000134848600021114881600121C1600021BD
:10216000016141618161C1610162FEF7E9FD002801
:1021700001D0FEF761FB00210848FEF771FD002841
:1021800001D0FEF759FB00210448FEF7A0FD00280E
:1021900001D0FEF751FB10BD0054004004010020A7
:1021A0000E09002010B5124812490860FF200530C2
:1021B000486000210F48816007210902C1600021A9
:1021C000016141610121490281610021C161016216
:1021D000416281620721C1620021016308214163DC
:1021E000FFF71AFC002801D0FEF726FB10BD000007
:1021F00000300140A000002000BFFEE708B50D49F7
:1022000008780978491C0B4A1170C10F0918491048
:102210004900411A0DD0FE20074A0090127892061C
:10222000510F054A12785007400F01231A4600F05B
:102230008DF808BD2E0000202D00002038B50024A8
:1022400021E000251CE0E00010494018405D002816
:1022500015D0E0004018405D012808D1FF20E1B210
:102260000090E8B201231A4600F070F807E0012060
:10227000E1B20090E8B201231A4600F067F86D1C45
:10228000082DE0DB641C082CDBDB38BD8801002056
:1022900038B5002423E000251EE01248005D2841E7
:1022A000C007C00F002816D0E1B2E8B2FEF71EFA50
:1022B000002808D00120E1B20090E8B201231A46BC
:1022C00000F044F807E0FF20E1B20090E8B20123FB
:1022D0001A4600F03BF86D1C082DDEDB641C082C50
:1022E000D9DB38BD2500002008B5A72008231A46F1
:1022F00000210090084600F029F808BD38B50024F8
:102300000CE060002018084A811803226846FDF797
:1023100046FF5B21009800F074FF641C03480078BE
:102320008442EEDB38BD0000700100202400002054
:1023300008B5032204496846FDF731FF2A210098B9
:1023400000F05FFF08BD000021000020FFB515462A
:10235000099C02460BE00B4604E0DE00064FF6192E
:10236000B4545B1C039E8E199E42F6DC521C43192A
:102370009342F0DCFFBD00006000002070470000C9
:102380001CB56946087940084000019001F044F905
:10239000012826D01549164801F0D1F915490870D1
:1023A0006846007941084900491C01916846007956
:1023B0000E2188430E49097849000E22114001433D
:1023C00001916846007970218843094949780901DB
:1023D000702211400843019001F0DCF80120FEF763
:1023E0001BFB6946097808461CBD00001000002050
:1023F0004000002000000020F8B504460E461546B7
:10240000334600220321C9022046009500F02AF835
:10241000002805D0206E2021084320660320F8BD47
:102420003346002280212046009500F08FF80028D6
:1024300005D0206E2021084320660320EFE73346B5
:102440000022032149022046009500F00BF80028E5
:1024500005D0206E2021084320660320DFE70020FE
:10246000DDE70000FEB504460D4616461F46FEF7A2
:10247000F1FB0899401A381A0190FEF7EBFB009027
:102480003148006823214843000D019948430290D8
:1024900052E003204002854203D1002E01D1206882
:1024A000007B781C002847D0FEF7D4FB0099411A26
:1024B0000198814202D20198002836D120684068F4
:1024C000E021884321684860FF2105316068884227
:1024D0000ED10121C903A068884203D04911A06828
:1024E000884205D12068006840218843216808603F
:1024F00001214903A06A88420DD100BF206800680D
:102500008843216808602068006801214903084366
:102510002168086000BF01215D20015500BF002136
:102520005C20015500BF0320FEBD0298002800D1A9
:1025300001900298401E0290206880682840B042B6
:10254000A7D10020F0E700003C000020FFB583B0D9
:1025500004460D461E46FEF77DFB0C99401A371ABD
:10256000FEF778FB01902F4800684001000D78438A
:10257000029049E0701C002846D0FEF76BFB0199E1
:10258000401AB84201D2002F37D120684068E021BC
:10259000884321684860FF210531606888420ED178
:1025A0000121C903A068884203D04911A06888426C
:1025B00005D1206800684021884321680860012116
:1025C0004903A06A88420DD100BF20680068884393
:1025D00021680860206800680121490308432168D8
:1025E000086000BF01215D20015500BF00215C2073
:1025F000015500BF032007B0F0BD0298002800D1AC
:1026000000270298401E0290206880682840A84257
:1026100001D1012100E0002105988142AAD10020CA
:10262000E9E700003C0000207047000011B581B0D0
:102630000224684600790007410F6846017000795E
:102640004006410F684641700020144908600CE0C4
:10265000684612490968405C1149104A126888545A
:102660000E480068401C0D4908600C480068A042F4
:10267000EED3E1B20A4801F079F90A490870084638
:102680000078012804D0022803D0032803D101E0F8
:1026900002E001E000E000BF00BF1CBD040000201C
:1026A000400000201100002010B500F035FF64202C
:1026B000FEF7B2F900F04EFF002801D1FEF7BCF89A
:1026C00000F0B1FFFF2000F071FF732001F006F968
:1026D000202001F0CDF80C2001F0B8F8032001F023
:1026E000ADF80949012001F071F80522002101200F
:1026F00001F0FCF8012001F0CDF8022001F0DAF839
:1027000000F000FF10BD0000883A000810B500F08E
:1027100003FF6420FEF780F900F01CFF002801D1C0
:10272000FEF78AF800F07FFFFF2000F03FFF7320E4
:1027300001F0D4F8202001F09BF80C2001F086F87D
:10274000032001F07BF80849062001F03FF806203D
:1027500001F0FAF8002001F09DF800F01BFF0220C4
:1027600001F0A8F810BD0000853A000801B5024844
:1027700069460978017008BD2D00002001B50322CB
:1027800069460248FDF70BFD08BD0000210000204E
:1027900010B5FEF737FC10BD00B595B0302109A883
:1027A000FDF716FD00200590069007900890142173
:1027B0006846FDF70DFD0220099001200C901020C5
:1027C0000D900020119009A8FEF760FE002801D0AE
:1027D000FEF732F807200590002006900790089039
:1027E000002105A8FEF734FD002801D0FEF724F8EB
:1027F00020200090002003906846FEF773FC00281C
:1028000001D0FEF719F815B000BD70470FB410B530
:1028100004A9074B02AA039800F050F9044602A944
:10282000002000F0E9FC204610BC08BC04B01847AA
:10283000F93100082021020C01D010211046020AB3
:1028400001D010460839020901D01046091F82083C
:1028500001D01046891E420801D0881E7047081A10
:102860007047F8B582B28BB2040C0D0C1046584379
:10287000002126465E43370C3604801979411646FE
:102880006E43370C36048019794126466E43891908
:10289000F8BD30B47446641E2578641CAB4204D382
:1028A000635D5B00E31830BC18471D46F8E7000085
:1028B00010B5002819DB1A4A03231B02D21883081B
:1028C0009B00D2588307DC0EFF23A3409A438B075B
:1028D0001B0E8407E40EA3401A43114B0324240269
:1028E0001B198408A4001A5118E00E4A03071B0F95
:1028F000083B9B089B00D2588307DC0EFF23A340B4
:102900009A438B071B0E8407E40EA3401A43054B22
:102910000407240F083CA408A4001A5110BD0000AD
:1029200000E100E01CED00E002E008C8121F08C151
:10293000002AFAD170477047002001E001C1121F40
:10294000002AFBD170470000F0B51FB486B009988B
:10295000089A030D0021024314D05148514A181817
:10296000504305141198012810981AD0281A401CB9
:1029700000264D4F4D49009601910490002812DA2F
:10298000444211E01198012449A3012801D1109873
:10299000C1430698119A84600360C26041600BB025
:1029A000F0BD4042E4E70446210500203F4A001CF8
:1029B00051410391029012E0E00707D032463B46B6
:1029C00001990098FDF7D4FC0191009032463B46F6
:1029D00010461946FDF7CCFC06460F466410002C45
:1029E000EAD10498039B0028029A0999089806DA0C
:1029F000FDF7BEFC019B009AFDF7BAFC05E0FDF770
:102A00001FFD019B009AFDF71BFD04460E460022A8
:102A1000284BFDF7ADFD03D80020C043014607E079
:102A20000022254B20463146FDF7EEFBFDF780FDE9
:102A3000102409E0002C0ADB0A220023FDF76EFBBC
:102A4000079B30321A55641E02460A43F2D1112206
:102A5000641C079B121B1C19119B012B03D0012323
:102A600008430ED10AE0084304D011201090002042
:102A7000119077E71098151A6D1E0BE0109882429E
:102A800002DD00236D1C03E0824201DA00236D1E8B
:102A9000002BEED0069811998260C16030C07EE7AD
:102AA00001FCFFFF104D0000000014400000F03F4B
:102AB000300000000000F0430000E03FFFB597B099
:102AC000064600251BE2252876D100242746F74933
:102AD000049400E00443761C32780120203A9040B0
:102AE0000842F7D130782A280ED0022230780146E9
:102AF0003039092916D804990A2359433039401826
:102B00001443761C0490F1E7189802C804911890B9
:102B1000002904DA012040030443484204900220C3
:102B20000443761C30782E2814D104200443707896
:102B3000761C2A2809D11898761C80C8189009E0BC
:102B40000A214F43303FC719761C3078014630398F
:102B50000929F5D930786C2810D006DC4C281AD019
:102B600068280ED06A2817D104E0742813D07A2878
:102B700012D110E00120400504430CE001210905B9
:102B800001E0032109050C437178814203D1012042
:102B900000052418761C761C307866280BD013DCD0
:102BA00058287DD009DC00287BD04528F6D046285F
:102BB000F4D047281AD1A9E118E0632835D0642859
:102BC00070D0652812D1A1E170286CD008DC67288C
:102BD000F1D069287DD06E280DD06F2806D1BCE0D9
:102BE00073282ED0752873D0782859D01A9A19993D
:102BF00090476D1C82E16002400F022809D0032833
:102C00000DD00428189801680DD00D60001D189093
:102C100074E11898EA1701680D604A60F6E71898A1
:102C200001680D80F2E70D70F0E718986A460178A8
:102C30001172001D18900020507202A8009001200F
:102C400005E0189802C8189000200091C043610761
:102C50000ED5002101E00199491C0191B94213DA16
:102C60008142F8DB019A0099895C0029F3D10BE0DD
:102C7000002101E00199491C01918142FADB019A8E
:102C80000099895C0029F5D1019904981A9B471A8B
:102C900021463846199A00F099FA4019019903E043
:102CA00051E030E115E050E0451807E00098009948
:102CB0000078491C00911A9A199990470198401E72
:102CC0000190401CF2D1214638461A9B199A12E114
:102CD00037E00A200021009001916002410F022993
:102CE00007D0189A01CA1892C2179446032908D02F
:102CF0000AE01898C01DC108C90005C9189194467A
:102D000007E000B2C2179446042902D140B2C117AD
:102D10008C4600226146944506DA0A46002140426C
:102D200091418C462D2102E0210504D52B216A46D4
:102D30001173012103E0E10701D02021F7E702919F
:102D400056E00A200AE0102008E010200090002140
:102D5000042004430191082703E008200021019189
:102D600000906002410F022907D0189A01CA1892F8
:102D700000229446032908D008E01898C01DC10815
:102D8000C90005C91891944603E080B2042900D116
:102D9000C0B20021029121072AD531780D91702906
:102DA00006D0009A1021019B4A401A4305D00EE03C
:102DB00040216A461173012108E06146014306D0B3
:102DC00030216A4611730D99517302210291009AC4
:102DD0000821019B4A401A430AD16146014301D1AF
:102DE000610705D530216A46117301217F1E0291CA
:102DF0003178582904D02EA10E910DA90D910DE026
:102E000030A1F9E76146019B009AFDF787F90E9B17
:102E10008C469B5C0D9A521E0D92137061460143C5
:102E2000F0D10D9805A9081A20300190600703D54C
:102E300001200004844300E001270198874201DD5E
:102E4000381A00E0002001990090411802980918F2
:102E50000498401A0490E00306D421461A9B199A5C
:102E6000049800F0B3F94519002706E003A81A9A60
:102E7000C05D199990476D1C7F1C02988742F5DB55
:102E8000E0030CD521461A9B199A049800F09EF98C
:102E9000451904E01A9A3020199990476D1C009941
:102EA000481E00900029F5DC1FE000000928010001
:102EB00030313233343536373839616263646566B0
:102EC0000000000030313233343536373839414272
:102ED00043444546000000000D980D990078491CB8
:102EE0000D911A9A199990476D1C0199481E0190ED
:102EF0000029F1DC4DE100F059F94519761C3078D4
:102F0000002800D0DFE528461BB0F0BD600700D4E4
:102F100006271898C01DC108C90048680A6808310A
:102F2000C30FDB071891190001D09CA108E021050F
:102F300001D59BA104E0E10701D09AA100E09AA18C
:102F40004300109130785B0865280CD006DC4528DA
:102F500009D046281DD0472841D141E0662818D025
:102F600067283CD13CE00021112F01DB112000E05B
:102F7000781C0191009008A911A8FFF7E5FC1399AE
:102F800005910021119A15927F1C129801970091CA
:102F900050E00120C00703900120019008A900978C
:102FA00011A8FFF7D1FC139A149905920022119BE6
:102FB000009212981593059A0192002901D01046AB
:102FC00002E0791C40180190381A01D5019804E0FC
:102FD0004042401E0090781C0190C01B029043E0CC
:102FE000012F00DA01270021112F01DD112000E05F
:102FF00038460191009008A911A8FFF7A5FC139984
:103000000591119A002112981592009101972107BC
:103010000CD40599B94201DB019900E00191012925
:1030200004DD159A491E515C302906D0B84201DAF8
:10303000011D05DA0121029115E00199491EEDE714
:10304000002805DC0099411800910199091A03E054
:10305000019A411C914200DD01910099401A401CE7
:1030600002900120C0070390200706D4029901981E
:10307000814202DB0020C043029000206946C877ED
:1030800007AF012103980337C907884224D00220E3
:1030900011902B201290039800280CDA40420390E4
:1030A0002D20129007E00A210398FDF721F8303116
:1030B0007F1E039039701199481E11900029F2DC8F
:1030C00003980028EFD1791E1298087030782021DB
:1030D00008404530BF1E387006A8C01BC01D0390B5
:1030E00010980078002800D001200199411802981A
:1030F000C0170918039809180498401A401E049034
:10310000E00306D421461A9B199A049800F05EF851
:10311000451910980078002803D01A9A19999047F9
:103120006D1CE00324D521461A9B199A049800F0DF
:103130004DF845191CE00098002807DB0099059818
:10314000884203DD1598405C199901E019993020F7
:103150001A9A904700986D1C401C00900298401EDF
:103160000290002804D11A9A2E20199990476D1CBC
:103170000199481E01900029DDDC05E038781A9A93
:103180007F1C199990476D1C0399481E03900029D4
:10319000F4DC21461A9B199A0498ACE62D00000035
:1031A0002B0000002000000000000000F8B50446DD
:1031B00000251E461746880404D405E03946202021
:1031C000B0476D1C641EF9D52846F8BDFFB504460E
:1031D000002581B01E46C80301D5302700E0202716
:1031E000880404D505E038460399B0476D1C641E79
:1031F000F9D5284605B0F0BD0A68531C0B60107065
:103200007047F3B581B00C460125012668468079E8
:103210002840002804D06846407945076D0F03E038
:10322000684640794607760FF3B2EAB26F460094DB
:103230003F797F06790F6F463F793F07780FFFF799
:1032400085F8FEBD1FB5FEF70EFFFA20FDF7E4FB83
:103250000025FFF729FA0026FDF798FB0390039855
:10326000FFF78CFA4DE1FFF78BF802906846007A81
:10327000C007C00F00280AD06A46127A5206510FC2
:103280006A46127A1207500FFDF70AFA0025002E3F
:1032900004D0012E7ED0022E17D11DE1FDF704FBD4
:1032A0000446FDF7A9FB039010202040002810D011
:1032B0000398FDF7FFF9FDF769FB03906846007B73
:1032C000C007C00F002801D1012614E10398FFF7C1
:1032D00055FA2020204000280AD06846807B02282A
:1032E00003D101206946887302E002206946887391
:1032F000E007C00F00280ED06946087B0E218843E6
:103300006946097B0907490F491E49000E221140F1
:103310000843694608730220204000280ED0694601
:10332000087B0E2188436946097B0907490F491C20
:1033300049000E22114008436946087304202040CA
:1033400000280ED06946087B702188436946097BB6
:103350004906490F491E0901702211400843694678
:1033600008730820204000280ED06946087B702191
:1033700088436946097B4906490F491C09017022A7
:1033800011400843694608730398FFF7F7F9FEF701
:10339000ABFF00E004E0FEF7B1FFFEF7C9FFAAE0D3
:1033A000FDF782FA0446FDF74BFA0190E007C00FE3
:1033B00000280AD068460079C108C900684600792B
:1033C000401E4007400F0143019102202040002889
:1033D0000AD068460079C108C90068460079401CD7
:1033E0004007400F014301910420204000280DD0E8
:1033F0006946087938218843694609798906490F61
:10340000491EC9003822114008430190082020407D
:1034100000280DD069460879382188436946097922
:103420008906490F491CC900382211400843019000
:10343000684600794007400F08283FDA684600795F
:103440008006400F082839DA0198FFF78FF910201D
:103450002040002832D0002D30D168460078410845
:103460004900491C0091684600780E21884369464E
:10347000097949000E2211400843009069460878F6
:1034800070218843694609798906490F090170222C
:10349000114008430090FFF739F90098FFF7C6F88C
:1034A000FFF702F96A4612799206510F6A461279BD
:1034B0005007400F0122FDF711F900BF20202040E6
:1034C000002800D00226FEF70FFFFEF7B7FE002D02
:1034D00001D1FEF793FE0EE0FDF7E6F90446202049
:1034E0002040002800D00126FEF7FEFEFEF706FF72
:1034F000FEF7CEFE00BF00BFFDF742F96420FDF7E6
:103500008BFAB0E610B5012202210248FDF79BFBC1
:1035100010BD00000008004810B50022022102483A
:10352000FDF791FB10BD00000008004810B5012216
:1035300004210248FDF787FB10BD00000008004889
:1035400010B5002204210248FDF77DFB10BD0000EC
:10355000000800487CB50DA505222946302000F062
:103560003DFA05226946102000F0D2F8002409E057
:1035700029786D1C6846005D814201D000207CBD29
:10358000601CC4B2052CF3DB0120F8E76E52463212
:103590003400000010B5072000F008F90446702040
:1035A00004432146072000F038FA10BD70B50446E8
:1035B000052C04DD0021012000F02FFA0CE0012091
:1035C00000F0F4F805460120A040294681430D464D
:1035D0002946012000F021FA70BD10B5FF21E2203C
:1035E00000F01BFA10BD10B5FF21E12000F015FA24
:1035F00010BD10B5FFF7A4FF602000F065F8FF20B4
:1036000000F062F80446FFF791FF204610BD10B5A8
:10361000072000F0CBF810BD10B5172000F0C6F859
:103620008007800F10BD10B50821002000F0F5F9CB
:103630003F21012000F0F1F90321022000F0EDF913
:103640000321084600F0E9F90321042000F0E5F920
:103650000221052000F0E1F90E21062000F0DDF93D
:103660000021072000F0D9F90021112000F0D5F940
:103670000021122000F0D1F90021132000F0CDF933
:103680000021142000F0C9F90021152000F0C5F92F
:103690000021162000F0C1F900211C2000F0BDF926
:1036A00000211D2000F0B9F96420FDF7B5F9FFF7FE
:1036B00094FFFFF798FFFFF76DFFFFF737FF6420D8
:1036C000FDF7AAF910BD000001B582B00A20012360
:1036D00001AA02A900900648FEF762FA002804D069
:1036E0000348016E03A000F0BBF9684600790EBDE7
:1036F000A00000204572726F722072656164696E6D
:10370000672052656769737465723A202569000005
:1037100070B506460C461546FFF712FF3046FFF718
:10372000D3FF04E0FF20FFF7CFFF2070641C284682
:10373000691ECDB20028F5D1FFF7F8FE70BD70B557
:1037400004460D4600222946204600F001F870BDCF
:10375000F8B506460C461746072000F027F80E215C
:1037600008404510062D1BDA002F0AD0FFF741FF55
:1037700020702078202809DD00202070FFF72DFF21
:1037800004E00949485D00F011F820702078002815
:1037900004D0227831466120FFF7BAFF2846F8BDF1
:1037A00000202070FF20FAE78B3A000870B504462D
:1037B000FFF7C6FEE006C00EFFF786FFFF20FFF70B
:1037C00083FF0546FFF7B2FE284670BD70B504467C
:1037D0000D462300FFF75DF807060723242526057D
:1037E0002C0000BF00BF0320FFF7E0FF401CC6B263
:1037F000AD19FFF7A5FE1049095D202211430846C7
:10380000FFF762FF00BF28786D1EFFF75DFF3046AF
:10381000711ECEB20028F6D1FFF788FE09E000BF86
:1038200000BF00BF2978044A105D00F0F6F800E000
:1038300000BF00BF70BD0000913A000810B50446FB
:10384000A01EC1B2032000F0E8F810BD70B5054617
:103850000020FFF7ABFF04460C21204688430446B6
:103860002846084004432146002000F0D6F870BDE9
:1038700070B505460620FFF799FF0446282120462B
:10388000884304462046284304462146062000F08B
:10389000C4F870BD70B505460020FFF787FF0446E9
:1038A00064086400E807C00F04432146002000F0CC
:1038B000B4F870BD70B505460020FFF777FF0446E9
:1038C000022D02D10220044303E002212046884356
:1038D00004462146002000F0A0F870BD10B5044653
:1038E0002146052000F099F810BD0000F8B5044607
:1038F0000E4617460220FFF759FF0121A140084359
:103900008506AD0E2946022000F087F8B906890E1B
:103910000C4A105D00F081F80120FFF747FF0546D3
:10392000012E04D10120A0402843C5B204E00120AB
:10393000A040294681430D462946012000F06DF83C
:10394000F8BD00008B3A000870B505460620FFF769
:103950002DFF04460621204688430446204628437E
:1039600004462146062000F058F870BDF8B505461B
:103970000E4619480090FFF7CFFD3146284600F06B
:1039800043F8FFF7BFFD00BFFFF741FE04463020BC
:103990002040002800D004E00098411E009100283B
:1039A000F2D100BFFFF7B8FD0098002801D1022036
:1039B000F8BDFFF7EFFD10202040002801D00320C4
:1039C000F6E720202040002801D00120F0E7FFF793
:1039D0000AFE0020ECE70000FFFF0F0070B506466E
:1039E0000C461546FFF7ACFD3046FFF76DFE03E0D1
:1039F0002078641CFFF768FE2846691ECDB20028B7
:103A0000F6D1FFF793FD70BD70B504460D462A460A
:103A10002146A020FFF7E2FF70BD70B504460D46B9
:103A2000FFF78EFD202C0ADAE106C90E2022114391
:103A30000846FFF749FE2846FFF746FE0DE0204600
:103A4000FFF742FEE12C08D0E22C06D0E32C04D094
:103A5000FF2C02D02846FFF737FEFFF767FD70BD49
:103A600070B504460D462A4621460248FEF7CEFEB2
:103A700070BD0000500100201112131415160A0B1E
:103A80000C0D0E0F10E71CE3E71CE31112131415C5
:103A9000160A0B0C0D0E0F100000000000000000B5
:103AA00001020304060708090000000001020304E4
:103AB000D03A00080000002040000000282900083B
:103AC000103B00084000002088050000382900084D
:103AD00000000000000000000000000000000000E6
:103AE00000000101010101010303020201010101C2
:103AF00000000000000000000000000000000000C6
:103B000000000000040000000100000000127A0024
:04000005080000BD32
:00000001FF
