:020000040800F2
:1000000040050020D5000008E11800082D15000863
:1000100000000000000000000000000000000000E0
:10002000000000000000000000000000E9180008C7
:100030000000000000000000E5180008391A000860
:10004000E7000008E7000008E7000008E7000008F4
:10005000E7000008E7000008E7000008E7000008E4
:10006000E7000008E7000008E7000008E7000008D4
:10007000E7000008E7000008E7000008E7000008C4
:10008000E7000008E700000800000000E7000008A3
:10009000E7000008E7000008E7000008E7000008A4
:1000A000E7000008E7000008E7000008E700000894
:1000B000E700000800000000E7000008044885464B
:1000C00000F0A2F8004800477B1B0008C046C0466D
:1000D000400500200448804704480047FEE7FEE74B
:1000E000FEE7FEE7FEE7FEE7B31A0008BD000008E2
:1000F00030B50B46014600202022012409E00D46C0
:10010000D5409D4205D31D469540491B2546954047
:1001100040191546521E002DF1DC30BDF0B51FB45C
:100120000646002082B005464024019100901BE065
:10013000019922460F46304600F020F8049A059BAC
:10014000801A994110D310461946224600F04BF808
:10015000361A8F410197224601200021009F00F0AE
:1001600042F838184D4100902046641E0028DFDC1C
:10017000019B00982946324607B0F0BD10B5202AF1
:1001800004DB0846203AD040002110BD0B46D34086
:10019000D0402024A21A91400843194610BD0346BE
:1001A0000B439B0703D009E008C9121F08C0042AAB
:1001B000FAD203E00B780370401C491C521EF9D29E
:1001C0007047D2B201E00270401C491EFBD270475A
:1001D0000022F6E710B513460A4604461946FFF713
:1001E000F0FF204610BD10B5202A04DB0146203A5E
:1001F0009140002010BD914020239C1A0346E3400B
:100200001943904010BD0000064C0125064E05E044
:10021000E36807CC2B430C3C98471034B442F7D327
:10022000FFF750FFCC1B0008EC1B0008704770471D
:1002300070B5A6B013A800F07DF8482101A8FFF71B
:10024000C7FF0521684601710021417181710121BB
:10025000C171017200214172002014E00146C317F0
:100260005B0F5B18DB10DB001E4D5B190246C517E8
:100270006D0FAD18ED10ED00451B5D5D03460833B5
:1002800001AEF554401C4028E8DB01AC0020C0431F
:1002900018232246CA21009013A800F065FA012015
:1002A00000F072F81834641E812020700020C043D2
:1002B00019232246CA21009013A800F055FA012004
:1002C00000F062F81934641E812020700020C043C1
:1002D00019232246CA21009013A800F045FA26B03F
:1002E00070BD000000010020F0B597B005460C4637
:1002F000164604A800F01EF802200390002001908A
:100300000290022168460171457184712004010E3A
:100310006846C17106721420052301AACA21009003
:1003200004A800F021FA0746384617B0F0BD72B6AF
:1003300000BFFEE710B504462A2212492046FFF707
:100340002EFF1048408D60850E48C06AE0620D485F
:10035000006B20630D220B49343120463430FFF707
:100360001EFF084840304178412001550548403083
:100370008178422001550348406C60640148806CDC
:10038000A06410BD7400002070B5044600F00CF9A4
:1003900006462546681C002802D0054800782D181E
:1003A00000BF00F001F9801BA842FAD370BD000025
:1003B0000800002078B503460022DDE001269640C3
:1003C0000C683440002C7DD04D68012D08D04D685C
:1003D000022D05D04D68112D02D04D68122D18D177
:1003E000986856000325B5400646AE433046560091
:1003F000CD68B54028439860586801259540064669
:10040000AE43304610264D6835402D0995402843AF
:100410005860D86856000325B5400646AE433046BE
:1004200056008D68B5402843D8604D68022D02D033
:100430004D68122D15D1D508AE001D462035A8599E
:100440005507EE0E0F25B5400646AE43304656071B
:10045000F60E0D69B5402843D508AD001E4620367E
:100460007051186856000325B5400646AE43304625
:100470000D79AD07AD0F5600B54028431860012631
:1004800036074D683540B54275D100BF3D4DAD6969
:10049000012635433B4EB5613546AD69ED07ED0F9D
:1004A000009500BF00BF384D9608B600A8599507C3
:1004B0002E0F0F25B5400646AE4330460925ED0602
:1004C000AB4200E057E001D100250FE02F4DAB42D9
:1004D00001D101250AE02E4DAB4201D1022505E0F4
:1004E0002C4DAB4201D1032500E005259607360FC0
:1004F000B5402843244D9608B600A851264D2868DB
:100500000546A5432846012636044D683540B542C8
:1005100002D10546254328461F4D286068680546D8
:10052000A5432846012676044D683540B54202D1E0
:10053000054625432846184D6860A8680546A5432A
:100540002846012636054D683540B54202D105469C
:1005500025432846104DA860E8680546A54328466F
:10056000012676054D683540B54202D10546254342
:100570002846094DE860521C0D68D540002D00D07A
:100580001CE778BD0010024008000140000400484C
:1005900000080048000C004800040140002A01D077
:1005A000816100E081627047014800687047000087
:1005B0000000002002464120805C20282FD100BF8F
:1005C0004020805C012801D1022070470123402097
:1005D000835400BF242341208354106800684008DE
:1005E0004000136818601068006801231B039843DB
:1005F0001368186010680068084313681860106872
:100600000068012318431368186020234120835495
:1006100000BF00234020835400BF0020D5E7022004
:10062000D3E710B502460B464120805C20282ED12E
:1006300000BF4020805C012801D1022010BD0124B0
:100640004020845400BF2424412084541068006852
:100650004008400014682060106801680F242402DC
:100660000846A04301461802014310680160106863
:100670000068012420431468206020244120845411
:1006800000BF00244020845400BF0020D6E7022091
:10069000D4E7000010B50446002C01D1012010BDA4
:1006A0004120005D002805D1002140200155204651
:1006B00000F010F92421412001552068006840080D
:1006C0004000216808600F2109066068884321689E
:1006D0000861206880680121C90388432168886017
:1006E000E068012806D10121C903A06808432168F8
:1006F000886005E021218902A0680843216888609C
:10070000E068022802D180022168486020684068C1
:1007100014490843216848602068C0680121C90362
:1007200088432168C860616920690843A16909029A
:1007300008432168C860216AE069084321680860AD
:100740002068006801210843216808600020606477
:100750002021412001550020206300214220015525
:1007600000209CE700800002FFB581B004461646D9
:100770001F464120005D202877D100BF4020005D4A
:10078000012802D1022005B0F0BD01214020015511
:1007900000BFFFF709FF054619230122D1032046B8
:1007A000009500F04BFF002801D00120EBE721214C
:1007B00041200155102142200155002060646662ED
:1007C00067856063608DFF280BD9FF2020853F4837
:1007D0000090208DC2B20B052046029900F012FF56
:1007E0000BE0608D208539480090208DC2B2012336
:1007F0005B062046029900F005FF43E02A462046AA
:100800000A9900F074FF002801D00120BBE7606A5C
:10081000007821688862606A401C6062608D401EBA
:100820006085208D401E2085608D00282AD0208D77
:10083000002827D100950022802120460A9B00F045
:10084000FDFE002801D001209DE7608DFF280DD915
:10085000FF20208500200090208DC2B201231B06BE
:100860002046029900F0CEFE0CE02CE0608D208541
:1008700000200090208DC2B201235B062046029921
:1008800000F0C0FE608D0028B8D12A4620460A99A3
:1008900000F000FF002801D0012074E7202021682B
:1008A000C861206840680A490840216848602021E2
:1008B0004120015500214220015500BF4020015533
:1008C00000BF00205FE702205DE7000000200080FD
:1008D00000E800FE10B586B00446142101A8FFF719
:1008E00077FC1A49206888422DD100BF184840691A
:1008F00001218904084316494861084640690121DD
:1009000089040840009000BF00BFC0200190122061
:10091000029001200390032004900120059001A97A
:100920000C48FFF747FD00BF0948C0690121490590
:1009300008430749C8610846C069012149050840C4
:10094000009000BF00BF06B010BD00000054004082
:100950000010024000040048034800680349097879
:10096000401801490860704700000020080000207E
:1009700010B50648006810210843044908600020AB
:1009800000F006F800F02EF8002010BD0020024014
:1009900070B50446104801787D20C000FFF7A8FB21
:1009A000064631460D480068FFF7A2FB054600F0F9
:1009B000A1FD002801D0012070BD042C07D2002227
:1009C0002146501E00F02EF80548046001E0012089
:1009D000F2E70020F0E70000080000200C000020F3
:1009E0000400002008B500BF0D48806901210843BC
:1009F0000B49886108468069C007C00F009000BF9E
:100A000000BF00BF0846C069090408430449C86123
:100A10000846C06909040840009000BF00BF08BD37
:100A20000010024070B504460D4616462946204681
:100A300001F058F870BD0000F8B504460026002506
:100A4000012109042068084088427AD100275248D1
:100A5000C0690903084000280DD100BF4E48C06995
:100A600008434D49C8610846C06909040840009020
:100A700000BF00BF012749480068FF21013108403D
:100A8000002816D145480068084344490860FFF72C
:100A90008BFD064606E0FFF787FD801B642801D921
:100AA0000320F8BD3D480068FF21013108400028BF
:100AB000F1D03948006A0321090208400546002D9B
:100AC0002DD060680840A84229D03348006A884386
:100AD00005463148006A0121090408432E4908628D
:100AE0000846006A0121090488432B490862084628
:100AF0000562E807C00F002811D0FFF755FD064634
:100B000007E0FFF751FD801B2549884201D90320EA
:100B1000C7E72148006A022108400028F1D01E489A
:100B2000006A032109028843616808431A49086280
:100B3000012F05D10846C069090488431649C861D8
:100B400000BF2078C007C00F002807D01248006BF4
:100B500080088000A16808430F49086320212068AD
:100B60000840202807D10C48006B10218843E16819
:100B70000843094908630121890220680840884226
:100B800007D10548006B4021884321690843024989
:100B90000863002085E7000000100240007000405C
:100BA0008813000070B504460D46002C01D10120C9
:100BB00070BD52480068C007C00FA8420ED24F480F
:100BC00000684008400028434C4908600846006817
:100BD000C007C00FA84201D00120E9E70221206828
:100BE0000840022814D1042120680840042807D1B5
:100BF000434840680721090288434018404948603B
:100C00003F484068F0218843A16808433C49486058
:100C10002078C007C00F00283BD06068012808D1A9
:100C200037480068012149040840002815D10120F7
:100C3000BEE76068022808D13148006801214906F2
:100C40000840002809D10120B2E72D4800680221A0
:100C50000840002801D10120AAE7294840688008FF
:100C600080006168084326494860FFF79DFC0646FE
:100C700007E0FFF799FC801B2249884201D9032035
:100C800096E71F4840680C21084061688900884247
:100C9000EFD11A480068C007C00FA8420ED9174804
:100CA000006840084000284314490860084600686E
:100CB000C007C00FA84201D0012079E704212068B5
:100CC0000840042808D10E484068072109028843DB
:100CD000E16808430A49486000F01AF80849496881
:100CE000F02211400909084A515CC84007490860D0
:100CF0000020FFF74DFE00205AE7000000200240D0
:100D00000010024088130000B41B00080C000020F3
:100D1000F0B589B027A001460EC9C06805AC0EC465
:100D2000089028A001460EC9C06801AC0EC404900A
:100D30000024002500270026002000902548446854
:100D40000C20204000282DD0042802D0082828D1CB
:100D500002E02148009028E00F2080042040800C11
:100D600005A90E5C1B48C06A0007000F01A90D5CB5
:100D70000120000420400121090488420AD12A46AA
:100D8000002315481946FFF7C9F9314600F092FED5
:100D9000074604E01148314600F08CFE07460097F4
:100DA00003E000BF0C48009000BF00BF009809B0EE
:100DB000F0BD000002030405060708090A0B0C0D2C
:100DC0000E0F10100102030405060708090A0B0C98
:100DD0000D0E0F100010024000127A0000093D00B5
:100DE000FEB50446002C01D10120FEBD2078C007CD
:100DF000C00F002871D0FC4840680C21084004282E
:100E00000BD0F94840680840082812D1F6484068DD
:100E100001210904084088420BD1F34800680121F0
:100E20004904084000286BD06068002868D1012080
:100E3000DBE700BF6068012807D1EB4800680121AB
:100E400009040843E849086031E0606800280ED1D1
:100E5000E5480068012109048843E3490860084621
:100E60000068012189048843DF4908601FE0606849
:100E700005280ED1DC480068012189040843DA49BD
:100E8000086008460068012109040843D649086043
:100E90000DE0D5480068012109048843D249086063
:100EA00008460068012189048843CF49086000BFD3
:100EB0006068002812D0FFF777FB054606E0FFF7D1
:100EC00073FB401B642801D903208EE7C6480068E5
:100ED0000121490408400028F1D011E0FFF764FB2C
:100EE000054606E0FFF760FB401B642801D903209C
:100EF0007BE7BD4800680121490408400028F1D182
:100F0000022120680840022861D1B74840680C21BE
:100F1000084000280BD0B4484068084008281BD17E
:100F2000B1484068012109040840002814D1AE48A6
:100F3000006802210840002804D0E068012801D0A0
:100F4000012052E7A8480068F82188432169C900B8
:100F50000843A54908603AE0E068002820D0A2488C
:100F6000006801210843A0490860FFF71DFB054602
:100F700006E0FFF719FB401B022801D9032034E7E4
:100F800099480068022108400028F2D0964800687D
:100F9000F82188432169C90008439349086016E095
:100FA00091480068400840008F490860FFF7FCFA4C
:100FB000054606E0FFF7F8FA401B022801D9032096
:100FC00013E789480068022108400028F2D108216F
:100FD00020680840082831D1E069002817D08248ED
:100FE000406A0121084380494862FFF7DDFA05465F
:100FF00006E0FFF7D9FA401B022801D90320F4E6E6
:101000007948406A022108400028F2D016E076486C
:10101000406A4008400074494862FFF7C5FA054637
:1010200006E0FFF7C1FA401B022801D90320DCE6E5
:101030006D48406A022108400028F2D1042120684E
:101040000840042873D1002001906748C0698906D0
:10105000084000280ED100BF6348C06908436249B8
:10106000C8610846C06909040840009000BF00BF7D
:10107000012001905D480068FF21013108400028EF
:1010800016D15A480068084358490860FFF78CFA9F
:10109000054606E0FFF788FA401B642801D90320C3
:1010A000A3E652480068FF21013108400028F1D032
:1010B00000BFA068012806D14B48006A01210843FF
:1010C000494908622BE0A06800280CD14648006A14
:1010D00040084000444908620846006A04218843E9
:1010E000414908621BE0A06805280CD13E48006A0F
:1010F000042108433C4908620846006A012108436C
:10110000394908620BE03848006A40084000364917
:1011100008620846006A042188433349086200BF18
:10112000A068002813D0FFF73FFA054608E02BE03F
:10113000FFF73AFA401B2E49884201D9032054E6B2
:101140002948006A022108400028F1D011E0FFF789
:101150002BFA054607E0FFF727FA401B244988428F
:1011600001D9032041E62048006A022108400028F6
:10117000F1D10198012806D11B48C0690121090756
:1011800088431949C86100BF102120680840102811
:1011900060D1606901282DD11348406B04210843B8
:1011A000114948630846406B012108430E494863D2
:1011B000FFF7FAF9054606E0FFF7F6F9401B0228AB
:1011C00001D9032011E60848406B0221084000289D
:1011D000F2D00548406BF8218843A169C900084353
:1011E0000149486336E000000010024000700040F2
:1011F000881300006069401D00280FD15A48406BD9
:1012000004218843584948630846406BF8218843C5
:10121000A169C9000843544948631BE05248406B28
:1012200004210843504948630846406B4008400089
:101230004863FFF7B9F9054606E0FFF7B5F9401B2B
:10124000022801D90320D0E54748406B022108401D
:101250000028F2D1206A00284FD0434840680C2172
:101260000840082864D0206A022847D13E48006818
:101270000121090688433C490860FFF795F90546B6
:1012800006E0FFF791F9401B022801D90320ACE5E5
:10129000354800680121490608400028F1D100BF07
:1012A0003148C06A00090001E16A08432E49C8625A
:1012B000616AA06A08432C4949683D22120491439F
:1012C00008432949486000BF084600680121090613
:1012D000084325490860FFF767F9054606E0FFF770
:1012E00063F9401B022801D903207EE51E480068EF
:1012F0000121490608400028F1D033E01A4800686F
:1013000001210906884318490860FFF74DF9054691
:1013100006E0FFF749F9401B022801D9032064E5E4
:10132000114800680121490608400028F1D119E060
:10133000206A012800D158E50B484668C76A012099
:1013400000043040616A88420AD13907090FE06A17
:10135000814205D10F2080043040A16A884201D02B
:10136000012042E5002040E50010024070B504462F
:10137000002C01D1012070BD606A002808D1FF2136
:1013800005316068884200D105E00021E16102E09A
:101390000021216161610021A1625D20005D0028C2
:1013A00004D15C200155204600F066F802215D2042
:1013B00001552068006840218843216808600721A2
:1013C0000902E068884201D9002501E001252D03CA
:1013D0000F210902E068884206D007210902E0686F
:1013E000884201D00021A162FF21053160680840D8
:1013F00021229202A1681140084302222169114072
:101400000843217DC907C90F08431202A169114091
:1014100008433822E169114008438022216A1140C3
:1014200008439201A16A1140084321680860A0693D
:10143000000C042108401022616A11400843082270
:10144000616B114008430F221202E168114008430A
:101450000121090329400843216848602068C069C8
:101460000121C90288432168C8610020206601214A
:101470005D20015500207EE710B586B0044614219A
:1014800001A8FEF7A5FE1949206888422BD100BFAC
:10149000174880698914084315498861084680699E
:1014A00089140840009000BF00BF00BF1048406989
:1014B000490108430E494861084640690121490431
:1014C0000840009000BF00BFE02001900220029081
:1014D00000200390032004900020059001A909201A
:1014E000C006FEF767FF06B010BD000000300140E7
:1014F0000010024070B504462546681E094988421E
:1015000001D901200CE0681E074948610321081F2A
:1015100000F0E8FA002004498861072008610020F3
:1015200070BD0000FFFFFF0000E000E000BFFEE72D
:1015300001688969022211404908002902D000216E
:101540000268916201688969C907C90F0122514087
:101550005140002904D101688969114302689161F1
:101560007047000070B504460D4616462068806935
:1015700010210840000900283FD018E0681C00280E
:1015800015D0FFF711F8801BA84201D8002D0ED10D
:10159000606C2021084360644120015500214220F5
:1015A000015500BF4020015500BF012070BD2068DB
:1015B00080692021084040090028DFD010202168E0
:1015C000C86120202168C8612046FFF7B1FF20686C
:1015D00040680B49084021684860606C042108435A
:1015E000606420214120015500214220015500BFA7
:1015F0004020015500BF0120D8E70020D6E70000B9
:1016000000E800FEF0B504686568059C640D0126DD
:10161000B6023440084E26432C46B4438D05AD0D2A
:101620001604FF273F043E4035431D43059E3543C6
:101630002C4305686C60F0BDFF63FF03F8B50446FA
:101640000E4617461D4619E0681C002816D0FEF706
:10165000ABFF0699401AA84201D8002D0ED1606C4C
:10166000202108436064412001550021422001559A
:1016700000BF4020015500BF0120F8BD20688069EF
:101680003040B04201D1012000E00020B842DBD060
:101690000020F2E770B504460D4616461EE03246BD
:1016A00029462046FFF75EFF002801D0012070BDCB
:1016B000FEF77AFF801BA84201D8002D0ED1606C86
:1016C000202108436064412001550021422001553A
:1016D00000BF4020015500BF0120E8E72068806975
:1016E0002021084040090028D9D00020DFE770B54C
:1016F00004460D46164621E0324629462046FFF7AD
:1017000031FF002801D0012070BD681C002815D0D1
:10171000FEF74AFF801BA84201D8002D0ED1606C55
:1017200020210843606441200155002142200155D9
:1017300000BF4020015500BF0120E5E72068806917
:101740000221084040080028D6D00020DCE710B570
:10175000FFF70EF900F074F900F006F800F068F8F1
:1017600000F094F810BD000000B587B0142102A865
:10177000FEF72EFD00BF2A4840690121C904084335
:1017800027494861084640690121C9040840019081
:1017900000BF00BF00BF22484069891008432049AC
:1017A000486108464069012149040840019000BF92
:1017B00000BF00BF1A484069490008431849486102
:1017C00008464069012189040840019000BF00BF1C
:1017D000002214491448FEF7E1FE1248029001204D
:1017E000039000200490059002A90F48FEF7E2FD47
:1017F000012002900D4803900020049002A90920C6
:10180000C006FEF7D7FD1F200002029000200390C3
:10181000049002A90920C006FEF7CCFD07B000BD68
:1018200000100240060300000008004800001210EB
:1018300010B5134813490860134848600021114847
:1018400081600121C1600021016141618161C1614B
:101850000162FEF71FFF002801D0FEF768FD00219E
:101860000848FEF7A7FE002801D0FEF760FD002122
:101870000448FEF7D6FE002801D0FEF758FD10BD43
:1018800000540040740000200E09002010B51248DA
:1018900012490860FF200530486000210F48816030
:1018A00007210902C1600021016141610121490252
:1018B00081610021C1610162416281620721C162CF
:1018C0000021016308214163FFF750FD002801D08A
:1018D000FEF72DFD10BD000000300140100000207B
:1018E00000BFFEE7704770477047000030B500202A
:1018F0009BE0A7230146C417640F6418E410E400BA
:101900004C4D64190246C5176D0FAD18ED10ED0072
:10191000451B6355C417640F2418E410032C1ED113
:10192000C417640FA418E410E400041B032C16DD94
:10193000C417640F6418E410E400041B072C0EDACB
:101940005B23C417640F6418E410E400394D641974
:10195000C5176D0FAD18ED10ED00451B6355C4178D
:10196000640F2418E410012C20D10246C417640F20
:10197000A418E410E400041B012C17DD0146C41771
:10198000640F6418E410E400041B072C0EDAFF2334
:10199000C417640F6418E410E400264D6419C517D9
:1019A0006D0FAD18ED10ED00451B6355C3175B0FB0
:1019B0001B18DB10042B18DA0146C3175B0F5B18EA
:1019C000DB10DB00C31A022B0FD15B23C417640F9B
:1019D0006418E410E400174D64190246C5176D0F32
:1019E000AD18ED10ED00451B6355C3175B0F1B18B9
:1019F000DB10012B18D10146C3175B0F5B18DB10FE
:101A0000DB00C31A022B0FD10123C417640F641823
:101A1000E410E400074D64190246C5176D0FAD18B8
:101A2000ED10ED00451B6355401C402800DA60E7CF
:101A300030BD00000001002010B5FEF78DFF10BD85
:101A400000B595B0302109A8FEF7C2FB0020059033
:101A500006900790089014216846FEF7B9FB022013
:101A6000099001200C9010200D900020119009A8E1
:101A7000FFF7B6F9002801D0FEF759FC07200590C2
:101A80000020069007900890002105A8FFF78AF82B
:101A9000002801D0FEF74BFC20200090002003908E
:101AA0006846FEF7C9FF002801D0FEF740FC15B0DC
:101AB00000BD7047F8B582B28BB2040C0D0C104615
:101AC0005843002126465E43370C3604801979417D
:101AD00016466E43370C36048019794126466E430C
:101AE0008919F8BD10B5002819DB1A4A03231B0217
:101AF000D21883089B00D2588307DC0EFF23A34033
:101B00009A438B071B0E8407E40EA3401A43114B24
:101B1000032424021B198408A4001A5118E00E4A59
:101B200003071B0F083B9B089B00D2588307DC0E62
:101B3000FF23A3409A438B071B0E8407E40EA340A8
:101B40001A43054B0407240F083CA408A4001A51AB
:101B500010BD000000E100E01CED00E002E008C85C
:101B6000121F08C1002AFAD170477047002001E017
:101B700001C1121F002AFBD17047FFF7E8FDFEF7F5
:101B800055FBFEF754FBFFF7B1FEFEF751FB10E0EB
:101B9000FFF7A9FE00240AE0E0B200227D21C9007F
:101BA000FEF7A2FB7D200001FEF7EEFB641C052C76
:101BB000F2DBEDE70000000000000000010203047A
:101BC000060708090000000001020304EC1B0008DE
:101BD00000000020100000005C1B0008FC1B000837
:101BE00010000020300500006C1B00080000000001
:0C1BF000040000000100000000127A0058
:04000005080000BD32
:00000001FF
